:020000020000FC
:100000000C949B0D0C9473050C947D051895189514
:100010000C94BF051895189518951895189518956E
:100020000C9487050C94BD04189518950C94EF0357
:10003000189518950C944C040C94880418951895F0
:100040001895189518951895189518951895189548
:100050001895189555AA0201000000000000000044
:1000600000000000000000000000020155AA03018A
:10007000020000000000000000000000000000007E
:100080000000050155AA0501020000000000000063
:1000900000000000000000000000070155AA060152
:1000A0000000000000000000000000000000000050
:1000B0000000060155AA0901000000000000000030
:1000C00000000000000000000000090155AA3001F6
:1000D0000000000000000000000000000000000020
:1000E0000000300100914801002309F467C006B305
:1000F0000F7310914101011711F110914201011785
:10010000C9F4E3EAF0E01081139510831091A30085
:100110001A30A8F010E01093A30000934101009161
:1001200041010F3361F001E000934E0101E00093C3
:100130004A0105C010E01093A30000934201B69954
:1001400031C0E4EAF0E0008111810F5F1F4F0083AE
:100150001183E4EAF0E000811181083E23E01207F8
:1001600050F100E010E0E4EAF0E000831183009138
:100170004B01002301F500E00093350101E00093FD
:100180004B0131E328E009E311E00E94890748E0D0
:1001900029E331E001E010E00E945D0701E00093F7
:1001A000500109C000E010E0E4EAF0E000831183B0
:1001B00000E000934B0100E0009348010895009196
:1001C0004A01002309F492C000E000934A0100E0D4
:1001D00000933501E1E4F1E0008100FD0EC000E391
:1001E00020912F0130E0F901E951FF4F0083EFE248
:1001F000F1E00081039500835EC0E1E4F1E000815D
:1002000001FD0EC002E320912F0130E0F901E95118
:10021000FF4F0083EFE2F1E00081039500834BC0C4
:10022000E1E4F1E0008102FD0EC00AE220912F011D
:1002300030E0F901E951FF4F0083EFE2F1E0008186
:100240000395008338C0E1E4F1E0008103FD0EC0B6
:1002500001E320912F0130E0F901E951FF4F0083C4
:10026000EFE2F1E000810395008325C0E1E4F1E0D5
:10027000008104FD0EC003E320912F0130E0F9015D
:10028000E951FF4F0083EFE2F1E000810395008325
:1002900012C0E1E4F1E0008105FD0DC003E2209110
:1002A0002F0130E0F901E951FF4F0083EFE2F1E067
:1002B00000810395008300912F010130A1F000918E
:1002C000E800003341F400912F010B3061F0009100
:1002D0002F010F3041F00091E800013339F4009113
:1002E0002F010B3019F401E000935501089510918E
:1002F0004D0120914E0101E02027122B1123C1F462
:100300000EEE009337010FE30093380100E00093F5
:100310004E0100E010E0E2E3F1E00083118308E227
:1003200010E0E0E3F1E00083118301E000934D0170
:10033000089510914D0120914F0101E02027122BCB
:100340001123F1F508EF0093370100E30093380122
:10035000E0EAF0E000810A95008304E610E0E2E3C1
:10036000F1E00083118308E210E0E0E3F1E00083B4
:1003700011830091A000023039F400E010E0E2E3C4
:10038000F1E0008311830AC00091A000002331F442
:1003900003E00093A00000E000934F0101E0009310
:1003A0004D01E6E3F1E00081039500830091360101
:1003B000093030F000E00093360101E0009358016D
:1003C000089510914D012091500101E02027122B3A
:1003D0001123D9F408EF0093370100E300933801AB
:1003E00000E00093500100E010E0E2E3F1E0008360
:1003F000118304EF11E0E0E3F1E00083118301E0F9
:1004000000934D0100E000933601089510914D01D5
:100410002091510101E02027122B112321F50EEE2E
:10042000009337010FE300933801E1EAF0E0008127
:100430000A95008304E610E0E2E3F1E00083118313
:1004400008E210E0E0E3F1E0008311830091A100F5
:10045000002331F405E00093A10000E00093510176
:1004600001E000934D01089514E0012F102F1A951B
:100470000023D9F70895F8DFA19AA99AF5DFA89A81
:10048000F3DFA998F1DFA898EFDFEEDFEDDF089545
:10049000EBDFA998E9DFA89AE7DFA99A08959A9374
:1004A0008A93902F80E008C0A998990FDDDFA89A61
:1004B000DBDFA898D9DF8395883020F497FBA6F777
:1004C000A99AF3CFA99AA198CFDFA89ACDDFCCDF64
:1004D000CBDFA19AA898C8DF8991999108950E94CD
:1004E000030E2801B22FA32F942F80EAC4DFAA0F96
:1004F000A06A0A2FD4DF092FD2DFBDDF01EACFDFE8
:10050000A0E009C0B1DFA998AFDFA89AADDFACDFEA
:10051000ABDFA898A9DFA99AA19880E090E004C079
:100520008E7FA898A1DF9395983040F4880F9CDFC8
:10053000A89A9ADF999BF4CF8160F3CFA19A0BE739
:1005400080270A2F10E0F201E00FF11F8083A395AE
:10055000AB17C0F289DFA99AA19886DFA89A84DF39
:1005600083DF82DFA19AA8987FDF92DFE6E00C9418
:100570000C0E0E94010EC801A22FB32F442E7BDF68
:100580000B2F000F006A8BDF042D89DF662409C062
:100590007724FC01E60DF71D00811BE701277FDFB3
:1005A00063946A16A8F374DF0AE010E00E943F0724
:1005B000442D3B2F2A2F0FE111E091DF662401C06B
:1005C00063946A1660F47724FC01E60DF71D008140
:1005D0007724F301E15FFE4F1089011789F36A1652
:1005E00070F2E8E00C940A0E00E10BBB00E70ABBD6
:1005F0000FEF08BB00E007BB03E005BB03E004BB53
:1006000006EE02BB09E701BB00B70B7F00BF00E0AD
:1006100005BF00E004BFF89400E009BF66D159D2DD
:100620008CD2789408E512E02AD49ED106B30F73D9
:100630000093410106B30F730093420100914401FE
:100640000A30E0F300910F0110E02091100130E03A
:10065000020F131F2091110130E0020F131F209190
:10066000120130E0020F131F2091130130E0020F3E
:10067000131F2091140130E0020F131F2091150168
:1006800030E0020F131F2091160130E0020F131FFC
:100690002091170130E0020F131F2091180130E064
:1006A000020F131F4AE050E00E94ED0D0D3C20E0C8
:1006B000120724F401E00093510103C001E000930C
:1006C0004E01DC9804E610E0DAD374D249E050E041
:1006D0000E94B70D10915201012B002329F0DD9AE1
:1006E00001E00093570103C001E0009354010E9410
:1006F00072000E94DF000E9477010E945F080E9442
:10070000A8080E9499010E94E1010E9406020E942D
:1007100046080E94BC080E94F8080E943D090E94F9
:1007200068090E941A0A0E94C70B0E94D10C1091FE
:1007300058012091500101E02027122320914F0100
:1007400001E02027122320914D0101E020271223F0
:10075000112369F2009142010F3349F600914B01D8
:10076000002329F601E000935B0149E050E00E947C
:10077000B70D00935A0100E000935C010AD316C044
:100780000E94770100914E0110914D01012B002331
:10079000B9F7959801B30F7C01BB01E0ECE5F1E0FE
:1007A00010811027108388950E943402009159010E
:1007B000002381F400915A010023C1F300915C01F0
:1007C000002359F301B3006301BB959A01E0009344
:1007D0004E01D8CF08E101BD08E001BDFFCFFA937B
:1007E000EA934A933A932A931A930A934FB70CB118
:1007F0001BB11C71112319F01BB1137E1BB9109191
:100800005D01112399F40A3A69F420915D0130E009
:10081000F901EC53FF4F0083EDE5F1E00081039512
:10082000008331C000E000935D012DC010915D0197
:10083000113099F4053569F420915D0130E0F9013A
:10084000EC53FF4F0083EDE5F1E000810395008359
:100850001AC000E000935D0116C020915D0130E0F8
:10086000F901EC53FF4F0083EDE5F1E000810395C2
:10087000008300915D01083130F001E000934601F2
:1008800000E000935D014FBF0991199129913991C1
:100890004991E991F9911895FA93EA932A931A9359
:1008A0000A932FB700914501002391F00091A20017
:1008B000083170F40091A20010E0F801EA55FF4FF2
:1008C00000810CB9E2EAF0E000810395008306C0E4
:1008D00000E00093450101E00093A2002FBF0991C1
:1008E00019912991E991F991189502E40BB908ED54
:1008F0000AB906E800BD00E000BD03E309B90895A8
:1009000000914501002319F00091A6000CB908954B
:10091000FA93EA933A932A931A930A933FB705B14D
:1009200000934301009144010A3090F42091430167
:100930000091440110E0F801E15FFE4F2083E4E400
:10094000F1E000810395008307EE07B9369A04C0F1
:1009500000E007B900E006B93FBF0991199129915C
:100960003991E991F991189500B70F7000BF07EE22
:1009700007B90EEC06B9339A08958A93FA93EA936D
:100980003A922A921A920A927A936A935A934A93C3
:100990003A932A931A930A938FB703E802BF01E0B0
:1009A0000093480101E00093490100914D010023AB
:1009B00021F1E2E3F1E000811181012B51F0D8D067
:1009C000E2E3F1E0008111810150104000831183C6
:1009D00014C0E0E3F1E000811181012B51F0C2D09D
:1009E000E0E3F1E0008111810150104000831183A8
:1009F00004C0BED000E000934D0100915B010023D4
:100A000009F056C0EEE5F1E0008103950083009106
:100A10005E01043608F44CC000E000935E010091D2
:100A20002F010023A9F400915201002391F0EFE57A
:100A3000F1E000810395008300915F01023048F0EE
:100A400000E412B3102712BB00E000935F0101C065
:100A5000969A009157010023E1F0E0E6F1E0008171
:100A600003950083009160010E3198F000E000933F
:100A7000600100E000935701DD9849E050E00E94DA
:100A8000B70D10915201012B002319F401E00093DE
:100A90005801E5E3F1E00081039500830091350101
:100AA000023330F000E00093350101E0009358017B
:100AB0008FBF099119912991399149915991699162
:100AC00079910990199029903990E991F99189913A
:100AD000189500E003BF03E802BF03E003BF09B7B6
:100AE000016009BF08951A930A931FB701E00093AC
:100AF00059011FBF0991199118951A930A931FB7AD
:100B000001E0009359011FBF0991199118952A938B
:100B10001A930A932FB700E112B3102712BB00916A
:100B200037010DBD009138010CBD08B7046008BF46
:100B30002FBF099119912991189500E00FBD00E090
:100B40000EBD0FEF0DBD0FEF0CBD00E007BD00E0C7
:100B500006BD00E00BBD00E00ABD00E009BD00E0FD
:100B600008BD089501E00EBD09B7046009BF0895EE
:100B700000E00EBD09B70B7F09BF949808950A9352
:100B80000FB70FBF0991189508E002BD00B70260CA
:100B900000BF07E005BD00E004BD00E003BD02B5F5
:100BA00007700023E1F708B70F7308BF09B70064A7
:100BB00009BF08959A938A9342E030E021E00FE064
:100BC00011E00E946F0200910F01053A09F077C011
:100BD00040E050E00E94B70D053A09F070C041E0D6
:100BE00050E00E94B70D0093390142E050E00E94AE
:100BF000B70D00933A0143E050E00E94B70D009317
:100C00003B0144E050E00E94B70D00933C0145E0F9
:100C100050E00E94B70D00933D0146E050E00E9475
:100C2000B70D00933E0147E050E00E94B70D0093DE
:100C30003F0148E050E00E94B70D009340018BD186
:100C40000093340100914701002341F00091E2003C
:100C5000093021F40091E400002349F00E94390892
:100C600000914701002371F70E945F08F9CF00E06F
:100C70000093470180E001C083958F3FC8F408E0EE
:100C8000809F402D485F942F482F50E008E010E0EF
:100C90000E94C70DF8013896EF2F3E2F492F21E013
:100CA0000FE011E00E946F0200910F010F3F21F34E
:100CB0008F3F08F46BC001E00093520167C031E33D
:100CC00028E009E311E025D148E029E331E001E023
:100CD00010E0F3D080E007C00FEF90E0FC01E15F8F
:100CE000FE4F008383958031B8F380E01AC0482F0F
:100CF00050E000E210E00E94C70D16950795402FC6
:100D0000942F482F50E000E210E00E94C70D012F01
:100D10000695302F492F20E10FE011E00E94B90223
:100D20008395803820F301E00093340100E049E02E
:100D300050E00E94C30D03C000E0009347010E94F1
:100D40002C0802C00E945F08009147010023D1F3E4
:100D500000914701002399F30091E200063079F7F2
:100D60000091E400002341F701E00093520105EAFD
:100D700040E050E00E94C30D05EA00930F0142E0FD
:100D800030E021E00FE011E00E94B90289919991D1
:100D9000089500E00BBB00E00ABB00E005BB00E0EB
:100DA00004BB04E002BB08E001BB00915A01002330
:100DB000D1F400E003BF00E002BF00E00CBF00E0A0
:100DC0000FBD00E00EBD00E00DBD00E00CBD00E079
:100DD00007BD00E006BD00E00BBD00E00ABD00E07D
:100DE00009BD00E008BD00E002BD00E005BD00E077
:100DF00004BD00E003BDB79904C006B30F730F3301
:100E0000D1F300E008BB0FEF07BB939A8B9800E883
:100E100008B900E000BF00E00BB900E00AB900E04B
:100E200000BD00E005BF00E004BF00EC0ABF0BB747
:100E3000006C0BBF00B70F7000BF00E007B900E007
:100E400006B900915A01002319F400E009BF03C05C
:100E500009B70F7309BF04B7006804BF00E000932F
:100E6000590100915A01002321F405B7006605BF1E
:100E700004C08ADE05B7006705BF8895089520E0A5
:100E800020934901209149012223E1F3980189012E
:100E900001501040232B99F7089560E00BC070E0DB
:100EA000F901E60FF71F549170E0F801E60FF71F04
:100EB00050836395641798F30895192E282EB8016E
:100EC000142F80E00CC090E0F901E80FF91F0081B9
:100ED00090E0AB01480F591F0E94C30D8395811705
:100EE00090F3822D912D089560E001C06395641701
:100EF00070F470E0F801E60FF71F508170E0F9011F
:100F0000E60FF71F7081571789F300E0089501E09D
:100F1000089540E006C050E0F801E40FF51F30836B
:100F200043954217C0F3089540E001C0439542172E
:100F300080F450E0F801E40FF51F3081303338F0D1
:100F400050E0F801E40FF51F3081343378F300E00E
:100F5000089501E008959A938A9388E090E001C093
:100F60000896803008E09007A0F4482F8C01012FEC
:100F7000302F21E00FE011E00E946F0200910F017D
:100F80000F3F71F708978C0143E00E94CF0D039546
:100F900001C000E089919991089548E124E530E08D
:100FA00006EA10E00E944D0701E0009345010E940F
:100FB000800408959A938A93802F48E12CE630E0CC
:100FC00006EA10E00E944D078093AC000FEF10E09E
:100FD0002091BC0030E0021B130B90E008171907AA
:100FE0002CF4E6EAF0E007890395078BE6EAF0E0E7
:100FF0000689080F068B01E0009345010E948004DA
:101000008991999108959A938A93802F48E124E8D1
:1010100030E006EA10E00E944D078093AC000FEF2D
:1010200010E02091BC0030E0021B130B90E0081789
:1010300019072CF4E6EAF0E007890395078BE6EA46
:10104000F0E00689080F068B01E0009345010E943D
:10105000800489919991089548E12CE930E006EAED
:1010600010E00E944D0701E0009345010E948004BA
:10107000089548E124EB30E006EA10E00E944D07B5
:1010800001E0009345010E948004089510915501EC
:101090002091450101E020271223112379F000E07F
:1010A0000093550148E12CEC30E006EA10E00E9484
:1010B0004D0701E0009345010E94800408959A9332
:1010C0008A9380E090E0009146010023F1F100E076
:1010D0000093460100E00093350100E009C010E0F4
:1010E000F801EC53FF4F208130E0820F931F0395EE
:1010F0000631A8F340E051E08C010E94D50D00912B
:10110000DA0010E04017510701F5892F0091DB004C
:101110008017D9F40091C6000033B9F00091C600E1
:101120000093E2000091C8000093E3000091CA0020
:101130000093E4000091CC000093E5000091CE0004
:101140000093E60001E00093470189919991089589
:1011500000914701002379F00091E200023059F438
:101160000091E400013039F40091E500053119F4F3
:1011700000E00093470108950091E7000332B9F5BC
:1011800000912F010A3098F100914C011091450116
:10119000012B002361F548E029EE30E009E311E07E
:1011A0000E9474070023D1F000E00093560101E093
:1011B00000934C010091E800013321F401E0009319
:1011C000540108950091E800003389F401E0009390
:1011D00053010E94AB0700933401089500E000938F
:1011E0002F0100E000934C0101E000934F010895AE
:1011F0000091E8000A3239F500912F010B3018F107
:1012000010914C012091450101E020271223112368
:10121000D1F000E000932F0100E000934C01009119
:10122000F100033269F40FEF40E050E00E94C30D7B
:101230000E94DA0500E0009347010E942C0803C0D9
:1012400001E000934F01009147010023A9F00091B4
:10125000E200063089F400E0009347010091E400C9
:10126000002339F401E00093500101E0009358019C
:10127000089501E000934F0108950091E8000333C1
:1012800031F500912F010B3010F100914C0100233A
:10129000F1F000E000932F0100E000934C01009179
:1012A000F100033289F449E050E00E94B70D11E0EB
:1012B000012749E050E00E94C30D01E00093500176
:1012C00001E000935801089501E000934F01089553
:1012D0009A938A930091E800023309F0A8C0009124
:1012E0002F010F3108F4A3C000914C01002309F431
:1012F0009EC000E000932F0100E000934C0100919C
:101300000501033209F090C02CE001EF10E00E94CB
:101310009407002309F488C048E02DEF30E005EF82
:1013200010E00E947407002309F47EC04091F10090
:1013300050E000E410E00E94C70DC8014091F200A7
:1013400050E000E110E00E94C70D800F911F009156
:10135000F30010E0000F111F000F111F800F911FED
:101360000091F40010E0800F911F805F9F4008E023
:1013700010E0AC010E94C70DC801082F092B71F5C0
:101380000091F500009339010091F60000933A01B5
:101390000091F70000933B010091F80000933C019D
:1013A0000091F90000933D010091FA0000933E0185
:1013B0000091FB0000933F010091FC00009340016D
:1013C00048E025EF30E001E010E00E945D0701E019
:1013D0000093500101E00093580129C00896089736
:1013E000482F8C01012F302F21E00FE011E00E94E7
:1013F0006F0200910F010F3F99F000910F0103322E
:1014000079F0482F892F382F28E005EF10E00E944F
:10141000B90201E00093500101E00093580107C0B8
:1014200001E000934F0103C001E000934F01899157
:10143000999108959A938A930091E800003309F0F6
:10144000A3C100914C01002309F49EC100912F011A
:101450000B3020F00091F100033241F000912F0198
:101460000F30A8F00091F500033289F400E00093FA
:101470002F0100E000934C0100E00093530101E0D4
:10148000009358010E94AB07009334017DC1109175
:1014900045012091530101E02027122B00915001BA
:1014A000102B00914F01102B00914D01102B112397
:1014B000B9F400E000935301009134010E94030845
:1014C000009145010023E1F704E610E00E943F0788
:1014D00000E000934701009134010E94DA0754C1F3
:1014E00000914701002309F45EC00091E20003303F
:1014F00009F059C000E0009347010091E400002387
:1015000009F042C00091E300043041F40091E5008D
:10151000043821F401E000934E0136C10091E3004C
:10152000063009F031C10091E600002309F02CC11A
:1015300003E200930F0100913401102F08E0109F87
:10154000402D842F4091340150E008E010E00E94CB
:10155000C70D012F302F482F21E00FE011E00E942E
:10156000B90200E00093520101E0009350010E9493
:10157000AB070093340100912F010C3008F004C137
:1015800001E00093530100C10091E500013221F414
:1015900001E000934F01F8C001E000934F0101E02A
:1015A00000935301F1C000912F010E3009F077C074
:1015B00000915601002309F072C024E001EF10E011
:1015C0000E949407002309F45AC01091F10000E42E
:1015D000109F002D2091F20010E1219F000D20911D
:1015E000F30014E0219F000D1091F400010F005F43
:1015F0000093340100913401002389F100913401FA
:10160000102F08E0109F402D842F4091340150E0AE
:1016100008E010E00E94C70D012F302F482F28E06E
:101620000FE011E00E946F0200910F010F3F39F4AB
:1016300001E00093530101E000935601A5C000E0D2
:1016400000934C0101E00093560100E000932F014C
:1016500001E000934F0100E00093530195C000E0CA
:1016600000934C0101E00093560100E000932F012C
:1016700001E000934F0100E00093530185C000E0BA
:1016800000934C0101E00093560100E000932F010C
:1016900001E000934F0100E00093530175C00091F9
:1016A0002F010F3108F470C000E000932F0100E01B
:1016B00000934C0100910501033209F062C02CE057
:1016C00001EF10E00E949407002309F45AC048E09B
:1016D0002DEF30E005EF10E00E947407002309F4BD
:1016E00050C04091F10050E000E410E00E94C70DAE
:1016F000C8014091F20050E000E110E00E94C70DE7
:10170000800F911F0091F30010E0000F111F000FD8
:10171000111F800F911F0091F40010E0800F911FA6
:10172000805F9F4008E010E0AC010E94C70DC80137
:10173000082F092B11F108960897482FFC01EF2F6D
:101740003E2F21E00FE011E00E946F0200910F0197
:101750000F3F79F4482F892F382F28E005EF10E04C
:101760000E94B90201E00093500101E0009358018A
:101770000BC001E000934F0107C001E000934F014F
:1017800003C001E000934F018991999108959A93C4
:101790008A930091E800013309F000C100914C01E7
:1017A000002309F4FBC000912F010B3020F00091C1
:1017B000F100033241F000912F010F30A8F00091A9
:1017C000F500033289F400E000932F0100E000935C
:1017D0004C0100E0009354010E94AB0700933401D8
:1017E00001E000935801DAC01091450120915401A5
:1017F00001E02027122B00915001102B00914F0186
:10180000102B00914D01102B112331F400E00093B7
:1018100054010E94CD07C2C000914701002381F10D
:101820000091E200023061F500E000934701009171
:10183000E4000023B1F40091E5000E940308009148
:1018400045010023E1F704E610E00E943F0700E0B5
:101850000093470101E00093500101E0009354011F
:101860009DC00091E500033221F401E0009358018E
:1018700095C001E000934F0101E0009354018EC038
:1018800000912F01033108F489C000E000932F017B
:1018900000E000934C010091F900033209F07BC095
:1018A00024E001EF10E00E949407002309F473C0C4
:1018B00044E025EF30E001EF10E00E9474070023C0
:1018C00009F469C01091F10000E4109F802D10917F
:1018D000F20000E1109F800D1091F30004E0109FD2
:1018E000800D0091F400800F805F882309F44FC0C1
:1018F00008E0809F402D942F482F50E008E010E032
:101900000E94C70D012F302F492F21E00FE011E079
:101910000E946F0200910F010F3FA9F100910F018A
:10192000033271F4082F0E9403080091450100233F
:10193000E1F704E610E00E943F0700E00093470152
:101940003FEF28E00FE011E00E94890708E0809F48
:10195000402D942F482F50E008E010E00E94C70D62
:10196000012F302F492F28E00FE011E00E94B9022B
:101970000E94AB070093340101E00093500101E0A5
:10198000009358010BC001E000934F0107C001E034
:1019900000934F0103C001E000934F018991999199
:1019A00008959A938A9300912F01002341F00091AA
:1019B000E700033211F100912F010C30F0F010918B
:1019C00054012091500101E02027122320914F0162
:1019D00001E02027122320914D0101E0202712234E
:1019E0002091450101E020271223112331F000E06E
:1019F000009354010E94CD0798C000912F0100234D
:101A000031F500914701002311F10091E20002300D
:101A1000F1F400E0009347010091E400002341F459
:101A2000DD9A01E00093570101E0009350017DC071
:101A30000091E500033221F401E00093580175C0E4
:101A400001E000934F0101E0009354016EC000914A
:101A5000E700033209F469C000912F010C3008F44B
:101A600064C000E000932F0124E007EE10E00E9424
:101A70009407002309F453C04091E70050E000E4CC
:101A800010E00E94C70DC8014091E80050E000E15D
:101A900010E00E94C70D800F911F0091E90010E037
:101AA000000F111F000F111F800F911F0091EA00FE
:101AB00010E0800F911F805F9F4008E010E0AC01B4
:101AC0000E94C70DC801082F092B11F1089608972D
:101AD000482F892F382F28E00FE011E00E946F0275
:101AE00048E02FE031E00BEE10E00E947407002385
:101AF00041F0DD9A01E00093570101E000935001AD
:101B000014C001E000934F0101E0009354010DC0A7
:101B100001E000934F0101E00093540106C001E091
:101B200000934F0101E00093540189919991089528
:101B300000008895FECF0FE90DBF00E00EBFC0E8A2
:101B4000D0E00E94170E002311F00E94270E0E9481
:101B5000F4020E94980D0C94980DE199FECF08951F
:101B60004F5F5F4FFADF4EBB5FBBE09A0895FADF2D
:101B70000DB308954F5F5F4F4EBB5FBBF894E29A81
:101B8000E19A0FBE08950FB6E8DF0DBBF5CF149FA5
:101B9000102D059F100D049F002D110D08954A95DD
:101BA0001AF016950795FBCF089500241124EFE055
:101BB000001F111F001C111C0416150610F0041A3A
:101BC000150AEA95AAF7001F111FA00100951095AC
:101BD00008955195419550400895FF27552312F4DB
:101BE000F160F7DF112312F4F09507D00E94D50DB4
:101BF000F0FD03D0F1FDEDCF089511950195104052
:101C000008957A926A925A924A92BA93AA939A93B0
:101C10008A9308957F806E805D804C80BB81AA810D
:101C200099818881F0E0EC0FFD1FEF01089501E03C
:101C3000089520E006D0E9F70895259102D0E9F74C
:101C400008952D9301501040202F212B089582E8F4
:101C50009CE1FC0105911491FC013296A591B4918F
:101C6000FC01349625913491422F432B19F0F90150
:101C7000E4DF01C0DEDF06961CE18E38910748F3F1
:101C80000895BE00A30000000300A0008E1C030501
:011C90000152
:0400000300000000F9
:00000001FF
